:020000040000FA
:10000000D8250020DD010000E5010000E701000027
:10001000E9010000EB010000ED010000000000001C
:10002000000000000000000000000000EF010000E0
:10003000F101000000000000F3010000F5010000E4
:10004000BF110000F70C0000F7010000E7100000EE
:10005000F1100000FB10000005110000F508000081
:10006000F7010000F7010000F7010000F7010000B0
:10007000F7010000F7010000F7010000F7010000A0
:10008000F7010000F7010000F7010000F701000090
:10009000F7010000F7010000F7010000F701000080
:1000A000F7010000F7010000F7010000F701000070
:1000B000F7010000F7010000F7010000F701000060
:1000C00000F002F800F06EF80AA090E8000C8244FC
:1000D0008344AAF10107DA4501D100F063F8AFF2D9
:1000E000090EBAE80F0013F0010F18BFFB1A43F016
:1000F00001031847F0780000107900000A444FF01F
:10010000000C10F8013B13F0070408BF10F8014B76
:100110001D1108BF10F8015B641E05D010F8016BBB
:10012000641E01F8016BF9D113F0080F1EBF10F81F
:10013000014BAD1C0C1B09D16D1E58BF01F801CB42
:10014000FAD505E014F8016B01F8016B6D1EF9D5C5
:100150009142D6D3704700000023002400250026DA
:10016000103A28BF78C1FBD8520728BF30C148BF1A
:100170000B607047692905F08982782905F0C282F1
:10018000732905F03A84002070471FB505F0A8FBDD
:1001900004000020002105F0AFFC401C60601FBD82
:1001A00010B510BD05F072FC1146FFF7EEFF00F030
:1001B0002BFA05F090FC03B4FFF7F2FF03BC05F047
:1001C00093FC000003480449086070470148024955
:1001D0000860704740787D01000000200948804792
:1001E00009480047FEE7FEE7FEE7FEE7FEE7FEE719
:1001F000FEE7FEE7FEE7FEE704480549054A064B31
:1002000070470000CD010000C1000000D81500209B
:10021000D8250020D8210020D821002010B5044680
:100220002146024802F0D6FB10BD0000000010403D
:1002300010B5044603E02078FFF7F0FF641C207837
:100240000028F8D110BD000070B504460D460948DD
:10025000006820B129462046064A1268904700BF30
:10026000054800680028FBD170BD0249086070474E
:10027000704700000C0000200800002070B5064602
:100280000C46206968B166B1D4E90001884208DAF9
:10029000256803E0207BFFF7C1FF6D1C6068A84262
:1002A000F8DC70BD70B506460C4635461DB12846D3
:1002B00005F078FA2060616909B9012100E00021A8
:1002C00008462146FFF7DAFF06E0A068401EA0605E
:1002D0002878FFF7A3FF6D1C287810B1A0680028CC
:1002E000F3D121466069FFF7C9FF70BD2DE9F043E6
:1002F0008DB00746884615461422BEA1684605F013
:1003000070FA002403E0302005A90855641C202C55
:10031000F9DBA86940B9B8F10A0F05D1002F03DA5B
:100320004FF001097E4202E03E464FF000090024F2
:1003300000BFB6FBF8F008FB10601DF8000005A92F
:100340000855641CB6FBF8F6002EF2D1B9F1000F87
:1003500002D02D200855641C002005A90855641EF4
:1003600005A805F01FFA2860696909B9012100E0B4
:10037000002108462946FFF781FF04E005A9085D32
:10038000FFF74CFF641E05A8204405A98842F5D25A
:1003900029466869FFF772FF0DB0BDE8F0832DE9CB
:1003A000F0410546002700262C6854B105F0E6F818
:1003B00000682178405C202801D1012000E0002065
:1003C00007461EE094B12078303806EB860100EB3A
:1003D0004106641C54B105F0D1F800682178405CF6
:1003E000202801D1012000E00020074605F0C6F8D2
:1003F00000682178405C202801D1012000E0002025
:100400000746002FDED12C603046BDE8F0810FB4E6
:1004100070B58AB00E9801900FA80290DCE00198A8
:100420000078252807D001990878FFF7F7FE019892
:10043000401C0190D0E00026002009900890079011
:1004400020208DF8180047F6FF70059000200490DA
:10045000039000BF019810B10198401C01900198D1
:1004600010B10198047801E00198047805F086F84D
:100470000068005D202801D1012000E00020C0B10B
:1004800026B101A8FFF78BFF05900CE0302C02D1BC
:1004900030208DF81800019818B101A8FFF77FFFF0
:1004A000049001200790019810B10198401E01901E
:1004B000D0E7204605F06AF8642830D00EDC5828D2
:1004C00037D006DC252818D02D281BD02E2877D130
:1004D0001CE05C284AD0632872D13EE0732834D0F7
:1004E00006DC69281AD06C2813D0702868D11FE068
:1004F000752810D0782863D11CE02520FFF78EFEE8
:1005000001255FE00120089000255BE00126002521
:1005100058E0002556E00120099000BF00BF029975
:1005200001C903AA02910A21FFF7E0FE012549E073
:1005300000BF00BF01200990029901C903AA0291DE
:100540001021FFF7D3FE01253CE0029901C9029179
:1005500003A9FFF7A7FE012534E0029911F8042B47
:10056000D0B20291FFF75AFE01252BE001980078E6
:10057000612806D0682808D06E280ED0722813D1C2
:1005800007E00720FFF74AFE13E00820FFF746FECA
:100590000FE00D20FFF742FE0BE00D20FFF73EFEBF
:1005A0000A20FFF73BFE04E001990878FFF736FECA
:1005B00000BF00BF0198401C0190002502E0FFE74A
:1005C000012500BF00BF012D05D1019810B1019890
:1005D000401C019000E03DE7019820B101980078AF
:1005E00000287FF41CAF002002900AB070BC5DF8B8
:1005F00014FB00003031323334353637383941425C
:100600004344454600000000DAB04FF0C0484FF0C8
:100610000049C8481990C8A103C9CDE90F01C8A174
:1006200003C9CDE90D012022C74905A805F0D9F875
:100630004FF00140049000F095FD00BF4FF0FF30F7
:10064000C249086000BF00F0E5FA074617B1C0A034
:10065000FFF7EEFD012000F059F900F010FB00203B
:1006600000F054F900F0A6FD072000F05AF9072029
:10067000B6498039420951F82210012282401140C6
:1006800009B1012100E000218A4600BF504600F078
:10069000DFFB074617B1B9A0FFF7CAFD00F0F5FB75
:1006A0001998006818901898C0F30350169018987D
:1006B000C0F30B1B189800F00F001790ABF6214009
:1006C00010B102280AD104E0BAA111A805F046F839
:1006D0000AE0BBA111A805F041F805E05A46BBA10C
:1006E00011A804F061FF00BF00BF1698009011AA86
:1006F000B9A11AA8179B04F057FFC0A0FFF798FDF7
:100700001AA8FFF795FDC7A0FFF792FDBAF1000FF9
:1007100003D0CEA0FFF78CFD02E0D5A0FFF788FD47
:10072000DBA0FFF785FDE8A0FFF782FDB3A0FFF790
:100730007FFD002405E005A850F8240048F8040BCC
:10074000641C082CF7D300264FF0C048002408E0B2
:1007500058F8041B05A850F82400814200D0761CEC
:10076000641C082CF4D31EB1DBA0FFF761FD02E08E
:10077000E2A0FFF75DFD002405E005A850F8240085
:1007800049F8040B641C082CF7D300264FF00049ED
:10079000002408E059F8041B05A850F82400814201
:1007A00000D0761C641C082CF4D31EB1D9A0FFF72E
:1007B0003FFD02E0E0A0FFF73BFD00F06FFB0746C6
:1007C000002208210FA800F08FFB07460022082115
:1007D0000DA800F0CEFB07460026002407E00DA878
:1007E000005D0FA9095D884200D0761C641C082CAE
:1007F000F5D31EB1D6A0FFF71BFD02E0DEA0FFF788
:1008000017FD0021022204984FF4F073CDE9012175
:1008100000904FF42072DF4802F048FA074627B1F3
:100820003946DDA0FFF7F3FD02E0E6A0FFF7EFFD9C
:1008300015230A221421002000F0D0FAE94800789C
:10084000E9490978E94A1278DFF8A4C3CDE9002123
:1008500002909CF80030DFF89CC39CF80020DFF881
:1008600098C39CF80010DFF894C39CF8000004F0D3
:10087000D9F904F0D5FAE24804F0B1FB002530E0E4
:100880000A2095FBF0F03030C0B203904FF47C00AA
:100890000090C5EB0510323081B201234020039A4D
:1008A00004F016FD0A2095FBF0F100FB11503030EA
:1008B000C0B203904FF47C000090C5EB05103230BD
:1008C00081B201234C20039A04F002FDC5EB051010
:1008D000323081B2CB4BCCA2642004F065FD681CA1
:1008E00085B2132DCCDDC648C849086001E003F08D
:1008F0007BFFFCE710B5072001218140134A430923
:1009000042F8231000BF00F00CF810BD00F01F02E9
:10091000012191404209920002F1E022C2F8001147
:10092000704700F01F0201219140B94A430942F883
:100930002310704700ED00E00123456789ABCDEF40
:10094000FFFFFFFFFFFFFFFFFC5C000080E200E015
:100950004572726F72202D2058696C696E7820473D
:1009600050494F206661696C656420746F20696E20
:10097000697469616C6973650A0000004572726F81
:1009800072202D2058696C696E782053504920637D
:100990006F6E74726F6C6C657273206661696C65E2
:1009A0006420746F20696E697469616C6973650A8B
:1009B00000000000436F727465782D4D3100000017
:1009C000436F727465782D4D33000000556E6B6E69
:1009D0006F776E202578000041726D2025732052BC
:1009E00065766973696F6E20256920566172696149
:1009F0006E742025690D0A0A000000002A2A2A2A9E
:100A00002A2A2A2A2A2A2A2A2A2A2A2A2A2A2A2A46
:100A10002A2A2A2A2A2A2A2A2A2A2A2A2A2A2A2A36
:100A20000D0A00004578616D706C6520646573691E
:100A3000676E20666F7220446967696C656E74200A
:100A4000413720626F6172640D0A00000A5632431A
:100A50002D4441504C696E6B20626F617264206E50
:100A60006F742064657465637465640D0A0000002A
:100A70000A5632432D4441504C696E6B20626F61BF
:100A800072642064657465637465640D0A00000017
:100A900055736520444950207377697463686573A2
:100AA00020616E64207075736820627574746F6E57
:100AB0007320746F0D0A636F6E74726F6C204C45F7
:100AC00044530D0A000000002056657273696F6E72
:100AD00020312E300D0A00004552524F52202D2059
:100AE0004272616D20726561646261636B20636F45
:100AF000727275707465642E0D0A00004272616D29
:100B000020726561646261636B20636F72726563FA
:100B1000740D0A004552524F52202D204444522059
:100B2000726561646261636B20636F727275707469
:100B300065642E0D0A000000444452207265616411
:100B40006261636B20636F72726563740D0A0000EB
:100B50004552524F52202D20426173652053504917
:100B600020726561646261636B20636F727275707D
:100B70007465642E0D0A000042617365205350496C
:100B800020726561646261636B20636F727265637A
:100B9000740D0A00400500205472616E7366657220
:100BA000206F66206672616D6573206661696C6591
:100BB000642077697468206572726F72203D202509
:100BC000640D0A005472616E73666572206F662050
:100BD0006672616D65732073746172746564200D53
:100BE0000A0000001C0000201A000020180000204D
:100BF0001600002014000020120000201000002029
:100C0000B48246002EF1EE0069732000300500200A
:100C100080E100E010B500217A4800F0C2FD0446F2
:100C20000CB1012010BD0121774800F0BAFD044647
:100C30000CB10120F6E70221744800F0B2FD044631
:100C40000CB10120EEE76FF0FF0201216D4800F0CA
:100C5000EBFA002201216D4800F0E6FA00220121A2
:100C6000694800F0E1FA00220121664800F099FB92
:100C700000220121654800F094FB0020D2E710B566
:100C80000221604800F041FC5E4800F0D1FB10BD3D
:100C900010B50446224601215B4800F082FB10BDDE
:100CA00008B50221574800F03DFB80090090012162
:100CB0005448009A00F075FB08BD4FF47A7000BFED
:100CC000011EA0F10100FBD1704710B501214D4874
:100CD00000F028FB044644F0200422460121494844
:100CE00000F05FFBFFF7E9FF0024224601214548A1
:100CF00000F057FB10BD7FB50221424800F012FB07
:100D000084B204F0010028B141480088401C4049E9
:100D100008802EE0C4F3400028B13D480088401E02
:100D20003B49088025E0C4F3800028B13948008899
:100D3000401C384908801CE0C4F3C00028B1354885
:100D40000088401E3349088013E0C4F3001028B126
:100D500031480088401C304908800AE0C4F3401044
:100D600028B12D480088401E2B49088001E0FFF77C
:100D700097FF2A48007828490978294A1278254D92
:100D8000CDE9002102902B78264D2A78204D297834
:100D9000254D287803F046FF204800881E49098821
:100DA0001F4A12881B4B1B88CDE90032CDE9021087
:100DB0001C48038816480288284601881BA0FFF7B4
:100DC00026FB03210F4800F01CFC0120012181407B
:100DD0001E4A430942F8231000BF7FBD2DE9F041B0
:100DE00004460D4616461F46200640EA054040EAE6
:100DF000062040EA07020121044800F0D2FABDE8CB
:100E0000F0810000C00E0020D00E0020E00E002077
:100E100012000020160000201A0000201C000020F4
:100E2000180000201400002010000020256420205D
:100E3000256420202564202025642020256420208E
:100E40002564202025640D0A0000000080E200E0F7
:100E500070B505460021B54801F0AEFA04460CB164
:100E6000012070BDB14800F0E2FCB04800F0D7FDB1
:100E7000AE49896901F11C00002100F054F90121FB
:100E8000AA4801F010F80020EBE710B5A7498969DE
:100E900001F11C00002100F046F910BD70B5A34916
:100EA000896901F1600000F03BF9054645F0040155
:100EB0009E4A926902F1600000F035F906209C49D3
:100EC000087001230022994800F039FE04460520ED
:100ED00097490870FF2048700223964A934800F013
:100EE0002EFE0446204670BD2DE9F04707460D460C
:100EF00016468E49896901F1600000F011F98046BB
:100F000048F00401894A926902F1600000F00BF98F
:100F10000DB1FC2D02D90120BDE8F08706208449DF
:100F2000087001230022814800F009FE814602205A
:100F30007F490870300C4870300A8870CE700024E9
:100F400005E017F8011B201D794A1154641CAC42BE
:100F5000F7D32B1D00227649744800F0F0FD81463E
:100F6000002400E0641C44F620608442FAD3484622
:100F7000D2E72DE9F04707460D4616466B498969C9
:100F800001F1600000F0CCF8804648F00401674AA7
:100F9000926902F1600000F0C6F80DB1FC2D02D993
:100FA0000120BDE8F087032061490870300C4870CB
:100FB000300A8870CE70002404E00021201D5C4AB5
:100FC0001154641CAC42F8D32B1D5A4A5849574857
:100FD00000F0B5FD8146002405E05649201D085C5F
:100FE00007F8010B641CAC42F7D34846D9E72DE95A
:100FF000F04F93B007468846002012904B4890F877
:101000002D402046E11704EB5171CD102346424696
:1010100049A102A8009504F0C7FA02A8FFF708F951
:101020004249896901F1600000F07AF883464BF08B
:1010300004013E4A926902F1600000F074F84FF03A
:10104000000A17E03949896901F1640000F068F885
:10105000064606F0080060B997F800902F4433491F
:10106000896901F16800494600F05DF8129828444A
:101070001290AA44C245E5D32C49896901F1700058
:10108000002100F050F82949896901F1600000F061
:1010900047F820F4807B4BF00201244A926902F168
:1010A000600000F040F800BF2049896901F120008C
:1010B00000F036F8064606F004000028F4D01B497C
:1010C000896901F1200000F02BF840F00400174975
:1010D0000190896901F12000019900F024F812982B
:1010E00013B0BDE8F08F10B5032000F010F810BD6C
:1010F00010B5042000F00BF810BD10B5052000F06D
:1011000006F810BD10B5062000F001F810BD00F083
:101110001F02012191400F4A430942F823107047F2
:10112000014608687047024611607047F00E0020C3
:101130004C0F00204C1000206C656E2025692C207F
:101140005769642025692C20696E63722025690D1A
:101150000A00000080E200E01F4A116070471F4A49
:101160001160704710B500211D4801F05EFC044677
:101170000CB1012010BD1A4AAFF21D01104601F05A
:1011800053FB174AAFF22F01104601F01BFB4FF43F
:1011900080721449124801F057FA0020EAE70E491C
:1011A0000968114A1268881A18B10B4909680E4A71
:1011B0001160704710B50A4801F0DBFB10BD10B597
:1011C000074801F089FB002001218140074A4309BB
:1011D00042F8231000BF10BD200000202400002092
:1011E0004C110020981200202800002080E200E02E
:1011F00070B504460D4616461CB100208A490860A9
:1012000008E07D218948FFF71FF801208649086022
:10121000002070BD2660A868A060E868E0604FF01C
:10122000113060600020F4E770B504460D461646A4
:101230001CB100207C49086007E0A2217B48FFF731
:1012400003F801207849086070BD6068B0F1113F73
:1012500003D100207449086007E0A3217348FEF71A
:10126000F3FF012070490860EEE7012D04D0022D44
:1012700006D1E068012803D100206B49086007E02F
:10128000A4216A48FEF7E0FF012067490860DBE718
:10129000691E042303EBC10122685018314600F097
:1012A000BFF800BFD0E770B504460D461CB1002062
:1012B0005D49086008E0C0215C48FEF7C5FF0120D9
:1012C00059490860002070BD6068B0F1113F03D13A
:1012D00000205549086008E0C1215448FEF7B4FFDA
:1012E0000120514908600020EDE7012D04D0022DB6
:1012F00006D1E068012803D100204B49086008E0CE
:10130000C2214A48FEF7A0FF01204749086000209B
:10131000D9E7691E042303EBC10122685018016854
:101320000846D0E770B504460D461CB100203E4982
:10133000086008E0DA213D48FEF786FF01203A49BF
:101340000860002070BD6068B0F1113F03D100203B
:101350003549086008E0DB213448FEF775FF0120BD
:10136000314908600020EDE7012D04D0022D06D19F
:10137000E068012803D100202B49086008E0DC2147
:101380002A48FEF761FF0120274908600020D9E7BD
:10139000691E002303EBC10122685018016808464A
:1013A000D0E770B504460D4616461CB100201E4914
:1013B000086007E0F6211D48FEF746FF01201A49A4
:1013C000086070BD6068B0F1113F03D1002016497C
:1013D000086007E0F7211548FEF736FF01201249A3
:1013E0000860EEE7012D04D0022D06D1E068012847
:1013F00003D100200C49086007E0F8210B48FEF7F4
:1014000023FF012008490860DBE7691E002303EB86
:10141000C10122685018314600F002F800BFD0E741
:10142000024611607047000004000020F4750000BF
:1014300010B504461CB10020CE49086007E05F21CA
:10144000CD48FEF701FF0120CA49086010BD606861
:10145000B0F1113F03D10020C649086007E06021C8
:10146000C548FEF7F1FE0120C2490860EEE7A0681A
:10147000012803D10020BF49086007E06121BE4870
:10148000FEF7E2FE0120BB490860DFE7216801F5B5
:101490008E704FF0004100F069F900BFD6E710B53B
:1014A00004461CB10020B349086007E07A21B24825
:1014B000FEF7CAFE0120AF49086010BD6068B0F1B8
:1014C000113F03D10020AB49086007E07B21AA4807
:1014D000FEF7BAFE0120A7490860EEE7A0680128E0
:1014E00003D10020A349086007E07C21A248FEF751
:1014F000ABFE01209F490860DFE7216801F58E708F
:10150000002100F033F900BFD7E770B504460D465F
:101510001CB100209749086007E098219648FEF723
:1015200093FE01209349086070BD6068B0F1113FDF
:1015300003D100208F49086007E099218E48FEF70B
:1015400083FE01208B490860EEE7A068012803D1E3
:1015500000208849086007E09A218748FEF774FE5A
:10156000012084490860DFE7216801F5947000F0EC
:10157000FAF8064646EA0501226802F5947000F082
:10158000F5F800BFD0E770B504460D461CB1002049
:101590007849086007E0BC217748FEF755FE012036
:1015A0007449086070BD6068B0F1113F03D100203C
:1015B0007049086007E0BD216F48FEF745FE012035
:1015C0006C490860EEE7A068012803D10020694952
:1015D000086007E0BE216848FEF736FE0120654935
:1015E0000860DFE7216801F5947000F0BCF806465A
:1015F00026EA0501226802F5947000F0B7F800BFF2
:10160000D0E770B504460D461CB10020594908606A
:1016100007E0DF215848FEF717FE01205549086012
:1016200070BD6068B0F1113F03D1002051490860DE
:1016300007E0E0215048FEF707FE01204D49086011
:10164000EEE7A068012803D100204A49086007E0BE
:10165000E1214948FEF7F8FD012046490860DFE72F
:10166000216801F5907000F07EF8064606EA050153
:10167000226802F5907000F079F800BFD0E710B54D
:1016800004461CB100203B49086009E04FF4817119
:101690003948FEF7D9FD012036490860002010BD09
:1016A0006068B0F1113F03D100203249086009E0C1
:1016B00040F203113048FEF7C7FD01202D490860B4
:1016C0000020ECE7A068012803D100202949086028
:1016D00009E04FF482712848FEF7B6FD0120254944
:1016E00008600020DBE7216801F5947000F03BF80A
:1016F000D5E710B504461CB100201E49086009E07A
:1017000040F21F111C48FEF79FFD01201949086097
:10171000002010BD6068B0F1113F03D100201549D1
:10172000086009E04FF490711348FEF78DFD012029
:10173000104908600020ECE7A068012803D10020D0
:101740000C49086009E040F221110B48FEF77CFDCE
:101750000120084908600020DBE7216801F590704E
:1017600000F001F8D5E701460868704702461160AD
:101770007047000004000020407600000246002070
:1017800000210AE0174B03EB01131B88934203D19E
:10179000144B03EB011002E0491C0429F2DB00BFEB
:1017A000704770B505460E461DB100200E49086011
:1017B00008E08F210D48FEF747FD01200A49086027
:1017C000002070BD3046FFF7D9FF04461CB9002049
:1017D00068600220F5E7214628466268FFF708FDA9
:1017E000EFE700002C0000200400002090760000AD
:1017F00070B50446A26902F17000216B00F02DFD66
:10180000A16901F1600000F025FD85B245F4807505
:10181000606A08B145F06005A16901F160002946E0
:1018200000F01BFD002060642064A06470BD10B552
:1018300004461CB10020FE49086008E040F2B711E0
:10184000FC48FEF701FD0120F949086010BDE06980
:10185000B0F1113F03D10020F549086008E04FF4D2
:10186000DC71F448FEF7F0FC0120F1490860EDE777
:101870002046FFF7BDFF00202062206B6063A16956
:1018800001F140000A2100F0E8FC00BFDEE770B57E
:1018900004460D46164640F21B41E648FEF7D4FCCE
:1018A0000120E349086070BD2DE9F84304460D4668
:1018B00090461CB10020DE49086009E0AD21DD48FA
:1018C000FEF7C2FC0120DA4908600020BDE8F88379
:1018D000206AB0F1223F01D10520F7E70020206205
:1018E000A064D548E0640020A063E06320646064E5
:1018F000C4F81880A8686062E868A062287C84F850
:101900002C00687C18B9082084F82D0002E0687C5F
:1019100084F82D00A87C84F82E0068696065287E14
:1019200084F858004FF01130E06194F82C10012039
:101930008840401E2063206B606300202060606050
:10194000A060E06020616061687E012862D1A169C9
:1019500001F1600000F07EFC064646F06606A169D3
:1019600001F16000314600F078FC9F208DF8000006
:1019700000208DF801008DF802009DF80010A2698A
:1019800002F1680000F069FC9DF80110A26902F103
:10199000680000F062FC9DF80210A26902F1680084
:1019A00000F05BFCA16901F1600000F053FC064609
:1019B00026F48076A16901F16000314600F04DFC0B
:1019C000A16901F1600000F045FC064646F480760E
:1019D000A16901F16000314600F03FFCA16901F10D
:1019E000640000F037FC074607F0010020B9A16948
:1019F00001F16C0000F02EFCA16901F1640000F01F
:101A000029FC074607F0010020B9A16901F16C002B
:101A100000F020FC2046FFF70AFF002056E770B5D3
:101A200004461CB100208249086009E040F23911E7
:101A30008048FEF709FC01207D490860002070BD48
:101A4000E069B0F1113F03D100207949086009E055
:101A50004FF49D717748FEF7F7FB01207449086049
:101A60000020ECE7206AB0F1223F01D10520E6E733
:101A7000A16901F1280000F0EDFB42F22B0140EAE0
:101A80000106A16901F12800314600F0E6FB4FF0A4
:101A900022302062A16901F1600000F0DBFB054605
:101AA00045F06205A16901F16000294600F0D5FB0F
:101AB000A16901F11C004FF0004100F0CEFB0020B5
:101AC000BDE770B504461CB100205949086009E023
:101AD00040F287115748FEF7B7FB012054490860D0
:101AE000002070BDE069B0F1113F03D100205049E2
:101AF000086009E04FF4C4714E48FEF7A5FB0120D1
:101B00004B4908600020ECE7A06C08B11520E8E71D
:101B1000A16901F11C00002100F09FFBA16901F106
:101B2000600000F097FB054625F00201A26902F172
:101B3000600000F092FB0020206200BFD1E72DE999
:101B4000FC5F04468A4693461F464FF000091CB1CD
:101B50000020374908600AE040F22A213548FEF7A4
:101B600073FB0120324908600020BDE8FC9FBAF1F8
:101B7000000F03D000202E49086009E040F22B211D
:101B80002C48FEF761FB0120294908600020ECE7A2
:101B90001FB100202649086009E04FF40B71254869
:101BA000FEF752FB0120224908600020DDE7E069D2
:101BB000B0F1113F03D100201D49086009E040F257
:101BC0002D211C48FEF740FB012019490860002028
:101BD000CBE7206AB0F1223F01D00620C5E7A06C18
:101BE00008B11520C1E7A16901F11C0000F032FB2A
:101BF000B0F1004F01D1012000E000200190A16967
:101C000001F11C00002100F028FBA16901F1600036
:101C100000F020FB064606F00400D0B106F00100FB
:101C2000B8B9D4E90C10884213D10198012805E015
:101C300004000020E47600008F18000006D1A1699E
:101C400001F11C004FF0004100F007FB40F283401F
:101C50008BE70120A064C4F838A0C4F83CB0276426
:101C6000676494F82D50A16901F1640000F0F2FA64
:101C7000804624E0082D03D1A06B90F800900AE084
:101C8000102D03D1A06BB0F8009004E0202D02D1FC
:101C9000A06BD0F80090A16901F16800494600F0FE
:101CA000DCFAA06B00EBE500A063606CA0EBE50044
:101CB0006064A16901F1640000F0CCFA804608F08C
:101CC000080010B9606C0028D4D1A26902F170003C
:101CD000616B00F0C2FAA16901F1600000F0BAFA8C
:101CE000064626F48076A16901F16000314600F0D5
:101CF000B4FA0198012815D1A16901F1280000F07A
:101D0000A9FA40F004000090A16901F128000099AF
:101D100000F0A3FAA16901F11C004FF0004100F0AE
:101D20009CFABEE0A5E000BFA16901F1200000F02F
:101D300091FA804608F004000028F5D0A16901F16D
:101D4000200000F087FA40F004000090A16901F142
:101D50002000009900F081FAA16901F1600000F013
:101D600079FA064646F48071A26902F1600000F03B
:101D700074FAA16901F1640000F06CFA804630E069
:101D8000A16901F16C0000F065FA8146082D07D1C8
:101D9000E06BD0B1E26B501CE06382F8009014E07D
:101DA000102D08D1E06B80B1E16BA1F80090E06BE1
:101DB000801CE06309E0202D07D1E06B28B1E06BC7
:101DC000C0F80090E06B001DE063206900EBE500C7
:101DD0002061A7EBE507A16901F1640000F03AFA80
:101DE000804608F001000028CAD0606CF0B3A169F9
:101DF00001F1640000F02EFA804624E0082D03D1A2
:101E0000A06B90F800900AE0102D03D1A06BB0F801
:101E1000009004E0202D02D1A06BD0F80090A169C1
:101E200001F16800494600F018FAA06B00EBE500EC
:101E3000A063606CA0EBE5006064A16901F164003F
:101E400000F008FA804608F0080010B9606C00281D
:101E5000D4D1A16901F1600000F0FCF9064626F436
:101E60008076A16901F16000314600E001E000F0F8
:101E7000F4F9002F7FF457AFA16901F1600000F081
:101E8000E9F9064646F48071A26902F1600000F0AB
:101E9000E4F9A26902F17000216B00F0DEF9002084
:101EA000A064002061E62DE9F04104460E461CB115
:101EB0000020EB4908600AE04FF46071E948FEF742
:101EC000C3F90120E64908600020BDE8F081E0691F
:101ED000B0F1113F03D10020E149086009E040F270
:101EE0008131E048FEF7B0F90120DD4908600020AB
:101EF000EBE7A06C08B11520E7E7002794F82C0069
:101F0000451E06E026FA05F000F0010000B17F1C36
:101F10006D1E002DF6DA012F02DD40F28440D4E779
:101F2000F04360630020D0E710B504461CB10020E8
:101F3000CB49086009E040F2BF31CA48FEF784F996
:101F40000120C7490860002010BDE069B0F1113FD1
:101F500003D10020C249086009E04FF47071C14804
:101F6000FEF772F90120BE4908600020ECE7606BC3
:101F7000C043E9E770B504460E4615461CB1002083
:101F8000B749086008E040F2FD31B648FEF75CF959
:101F90000120B349086070BD1DB10020B049086040
:101FA00008E040F2FE31AF48FEF74EF90120AC499F
:101FB0000860F0E7E069B0F1113F03D10020A849C3
:101FC000086008E040F2FF31A648FEF73DF9012025
:101FD000A3490860DFE7E564266500BFDBE72DE97C
:101FE000F84F81464C460027B9F1000F03D000207E
:101FF0009B49086009E040F25A419A48FEF724F9EB
:10200000012097490860BDE8F88F6069401C606155
:10201000A16901F1200000F01DF90546A16901F157
:10202000200000F017F928430090A16901F1200079
:10203000009900F012F905F00100A8B1D4E91001EF
:10204000A0EB010A2068401C20602046FFF7D0FB6F
:10205000A16901F1640000F0FDF8524640F27F41B1
:10206000D4E913309847CEE794F82D6005F00400CA
:1020700018B905F0400000287AD0A16901F160008C
:1020800000F0E8F883464BF48071A26902F1600029
:1020900000F0E3F8A16901F1640000F0DBF880468C
:1020A0002BE0A16901F16C0000F0D4F80746082E7E
:1020B00006D1E06BB8B1E26B501CE063177012E020
:1020C000102E07D1E06B70B1E16B0F80E06B801CCC
:1020D000E06308E0202E06D1E06B20B1E06B0760E2
:1020E000E06B001DE063206900EBE6002061A16960
:1020F00001F1640000F0AEF8804608F0010000280D
:10210000CFD0606CA8B3A16901F1640000F0A2F81F
:10211000804621E0082E02D1A06B077808E0102E3F
:1021200002D1A06B078803E0202E01D1A06B0768C5
:10213000A16901F16800394600F08FF8A06B00EB4F
:10214000E600A063606CA0EBE6006064A16901F1A9
:10215000640000F07FF8804608F0080010B9606C59
:102160000028D7D1A16901F16000594600F075F847
:102170001CE0FFE7A26902F17000216B00F06DF82E
:10218000A16901F1280000F065F820F0040000903A
:10219000A16901F12800009900F05FF80020A06417
:1021A0004FF49061D4E91330226C984705F0800019
:1021B00028B100224FF49161D4E91330984705F417
:1021C000807028B1002240F28941D4E91330984749
:1021D00005F0020060B1D4E91001A0EB010AE0684B
:1021E000401CE060524640F28741D4E913309847E2
:1021F00005F0200060B1D4E91001A0EB010AA0684D
:10220000401CA060524640F28241D4E91330984706
:1022100005F0080060B1D4E91001A0EB010A606884
:10222000401C6060524640F28141D4E91330984727
:1022300005F4005060B1D4E91001A0EB010A606818
:10224000401C6060524640F28A41D4E913309847FE
:1022500000BFD8E601460868704702461160704723
:1022600004000020E47600002DE9F04104460F460A
:102270001CB100204249086009E082214148FDF775
:10228000E3FF01203E4908600020BDE8F081E069DD
:10229000B0F1113F03D100203949086008E08321E3
:1022A0003848FDF7D1FF0120354908600020ECE7F0
:1022B000A06C08B11520E8E707F0010020B1A06A82
:1022C00010B140F28640E0E7A16901F160000568C5
:1022D00000BF002610E02C4850F83600384028B1E6
:1022E000294800EBC6004068054304E0264800EB9F
:1022F000C60040688543761C052EECD3A16901F128
:10230000600001460D6000BF0020BEE72DE9F041EE
:10231000054600271DB100201949086009E0CD21BC
:102320001848FDF791FF0120154908600020BDE81D
:10233000F081E869B0F1113F03D100201049086035
:1023400008E0CE210F48FDF77FFF01200C4908600F
:102350000020ECE7A96901F16000066800BF0024D5
:102360000AE0094800EBC4004068304018B1064854
:1023700050F834000743641C052CF2D33846D6E7E6
:102380000400002030770000F800002010B502465D
:10239000002000210CE0C1EBC103164C34F82330BF
:1023A000934204D1C1EBC10304EB830002E0491C5A
:1023B0000529F0D300BF10BD70B505460E461DB10E
:1023C00000200D49086008E08A210C48FDF73CFF19
:1023D000012009490860002070BD3046FFF7D6FF94
:1023E00004460CB90220F7E7214628466268FFF749
:1023F0005BFAF1E76C000020040000208477000005
:1024000070B504460D4640F2BF11EB48FDF71CFFC6
:102410000120EA49086070BD70B504460E461546B5
:102420001CB10020E549086008E08F21E248FDF773
:102430000BFF0120E1490860002070BD00206062B0
:102440000021E162A1622063A16361634FF011305A
:102450002062E561DA48E0636064E16901F10C0043
:10246000002100F0A5F9204600F041FB0020E4E740
:102470002DE9F04104460025E16901F1080000F072
:1024800094F9C6B2E16901F1080000F08EF9C6B214
:10249000E16901F10C00002100F08AF937460CE0F7
:1024A000626A515DE269101D00F082F96D1CE169FC
:1024B00001F1080000F079F9C6B206F0080010B981
:1024C000E06AA842ECD8606A28446062E06A411B76
:1024D000E162A0682844A06007F01007E16901F1FB
:1024E0000C00394600F064F92846BDE8F0812DE97A
:1024F000F04104460E4615461CB10020AF49086065
:1025000009E0DE21AC48FDF79FFE0120AB490860E1
:102510000020BDE8F0811EB10020A849086008E055
:10252000DF21A548FDF790FE0120A44908600020A6
:10253000EFE7206AB0F1113F03D100209F49086006
:1025400008E0E0219C48FDF77FFE01209B490860E0
:102550000020DEE7002D03DB00209849086008E03A
:10256000E1219548FDF770FE0120944908600020A4
:10257000CFE7E16901F1080000F017F90746E169CA
:1025800001F10C00002100F013F9A562E56266621A
:1025900007F01007E16901F10C00394600F008F975
:1025A0002046FFF765FF80464046B2E72DE9F0413F
:1025B00004460025E16901F1080000F0F6F8C7B211
:1025C000E16901F10C00002100F0F2F824E0E1697A
:1025D00001F1080000F0E9F8C6B206F00100D0B140
:1025E000E06900F0E2F8C2B228466D1C236B1A5471
:1025F00006F0200010B12069401C206106F0800028
:1026000010B16069401C606106F0400020B1A06913
:10261000401CA06100E002E0A06BA842D7D800BF38
:10262000206B28442063A06B411BA163E068284411
:10263000E06007F01007E16901F10C00394600F095
:10264000B7F82846BDE8F0812DE9F04104460E4672
:1026500015461CB10020594908600AE040F23111CA
:102660005548FDF7F1FD0120544908600020BDE800
:10267000F0811EB100205149086009E04FF49971C2
:102680004D48FDF7E1FD01204C4908600020EEE7D0
:10269000206AB0F1113F03D100204849086009E0E9
:1026A00040F233114448FDF7CFFD01204349086053
:1026B0000020DCE7002D03DB00204049086009E032
:1026C0004FF49A713C48FDF7BFFD01203B4908607B
:1026D0000020CCE7E16901F1080000F066F8074648
:1026E000E16901F10C00002100F062F86563A56367
:1026F000266307F01007E16901F10C00394600F08C
:1027000057F82046FFF752FF80464046AFE770B5C6
:1027100004461CB100202949086008E04FF4B77155
:102720002548FDF791FD01202449086070BD206A0D
:10273000B0F1113F03D100202049086008E040F2C9
:102740006F111D48FDF780FD01201C490860EDE771
:10275000E16901F1080000F028F8054605F01005D0
:1027600045F00301E26902F10C0000F021F800BF1E
:10277000DCE770B504461CB100201049086009E090
:1027800040F299110C48FDF75FFD01200B490860EC
:10279000002070BDE16901F1080000F006F805466F
:1027A00000BF012020EA9500F3E701460868704762
:1027B0000246116070470000D4770000040000203A
:1027C0000124000070B504460D4616461CB10020D9
:1027D0007E49086007E068217D48FDF735FD01204E
:1027E0007A49086070BD1DB100207849086007E093
:1027F00069217748FDF728FD012074490860F1E759
:10280000206AB0F1113F03D100207049086007E051
:102810006A216F48FDF718FD01206C490860E1E767
:10282000E563266400BFDDE770B504460D46164635
:102830001CB100206549086007E089216448FDF764
:1028400003FD01206149086070BD1DB100205F4992
:10285000086007E08A215E48FDF7F6FC01205B492D
:102860000860F1E7206AB0F1113F03D10020574919
:10287000086007E08B215648FDF7E6FC012053492C
:102880000860E1E76564A66400BFDDE770B5044653
:10289000E06A38B9A56A0021A1622946D4E911206D
:1028A000904702E02046FFF7E3FD2068401C2060CF
:1028B00070BD70B50446A06B10B12046FFF776FEE0
:1028C000A06B28B9D4E90D53E91AD4E90F20904739
:1028D0006068401C606070BD70B504461CB100208B
:1028E0003A49086007E0A6213948FDF7ADFC012010
:1028F0003649086070BDE16901F10800056800BF54
:1029000005F0030010B12046FFF7D3FF05F00400E7
:1029100020B1A06A10B12046FFF7B8FF00BFE9E779
:1029200010B504461CB100202849086008E040F2B8
:1029300025112748FDF788FC01202449086010BDB7
:10294000206AB0F1113F03D100202049086008E05F
:102950004FF493711E48FDF777FC01201B49086076
:10296000EDE7E16901F10C00002100F02BF800BF58
:10297000E5E710B504461CB100201449086008E0E2
:1029800040F243111248FDF75FFC01200F49086037
:1029900010BD206AB0F1113F03D100200B4908603F
:1029A00008E04FF4A2710A48FDF74EFC01200749E8
:1029B0000860EDE7E16901F10C00102100F002F878
:1029C00000BFE5E7024611607047000004000020E8
:1029D0002878000000BF00BF826802F00802082AC1
:1029E000F9D0021D1346196000BF7047014600BFB1
:1029F00000BF886800F001000028F9D000BF086817
:102A0000C0B270470246002000210AE0164B03EBDB
:102A100001131B88934203D1134B03EB011002E017
:102A2000491C0029F2D000BF704770B505460E461C
:102A30001DB100200D49086008E085210C48FDF714
:102A400003FC012009490860002070BD3046FFF7F3
:102A5000D9FF04460CB90220F7E7214628466268F0
:102A6000FFF7DAFCF1E7000020010020040000205D
:102A70008078000070B504460D461CB10020304936
:102A8000086007E060212F48FDF7DEFB01202C499C
:102A9000086070BD1DB100202949086007E0612170
:102AA0002848FDF7D1FB012025490860F1E7206A9D
:102AB000B0F1113F03D100202149086007E06221F5
:102AC0002048FDF7C1FB01201D490860E1E72068AF
:102AD000286060686860A068A860E068E8602069B5
:102AE0002861A069A8616069686100BFD1E710B57D
:102AF00004461CB100201249086007E083211148F8
:102B0000FDF7A2FB01200E49086010BD206AB0F15C
:102B1000113F03D100200A49086007E084210948D9
:102B2000FDF792FB012006490860EEE700202060D7
:102B30006060A060E0602061A061606100BFE4E7C8
:102B400004000020DC78000070B50546012128460D
:102B500000F03CFE04462CB12146FBA0FDF757FCDB
:102B6000012070BD0221284600F030FE04462CB141
:102B70002146FEA0FDF74BFC0120F2E70020F0E724
:102B80002DE9F0410446D4F86001E060D4F85C110E
:102B90002161D4F85C1161610021A1610121E16131
:102BA000216200216162A162C4F8AC1004F10C0240
:102BB0000221A06800F0DBFD074637B13946F3A0DB
:102BC000FDF725FC0120BDE8F081D4F86461002503
:102BD00009E004F12C0040F8256004F5AE7003C84C
:102BE00000FB01666D1CA068C068A842F1DC04F11E
:102BF0002C020221A06800F0D1FD07462FB1394612
:102C0000EAA0FDF704FC0120DDE70020DBE72DE969
:102C1000F0410446D4F86001C4F8B400B820D4F8F8
:102C20005C110151BC20D4F85C1101510021C0207D
:102C300001510121C4200151C82001510021CC20A3
:102C40000151D0200151C4F8541104F1B402012102
:102C5000A06800F08CFD064636B13146DEA0FDF7D7
:102C6000D6FB3046BDE8F081D4F86471002509E058
:102C700004F1D40040F8257004F5AE7003C800FBE1
:102C800001776D1CA068C068A842F1DC04F1D40291
:102C90000121A06800F082FD06462EB13146D7A082
:102CA000FDF7B5FB0120DDE70020DBE72DE9F84F5C
:102CB00081460C4692469B46DDF82C80DB48006836
:102CC000002846D100263FE00020C6EBC60101EBFC
:102CD0000611D74A02EB01118860C6EBC60101EB71
:102CE000061102EB01110860C6EBC60101EB0611EB
:102CF00002EB0111C1F85C01C6EBC60101EB061144
:102D000002EB0111C1F86001C6EBC60101EB06112F
:102D100002EB01114860C6EBC60101EB061102EBA4
:102D20000111C1F86401C6EBC60101EB061102EB0B
:102D30000111C1F86801C6EBC60101EB061102EBF7
:102D40000111C1F86C01761C002EBDD00120B749DD
:102D50000860A0B201F042FC074637B92146B5A091
:102D6000FDF755FB0120BDE8F88FC4EBC40000EB74
:102D70000410AF4901EB0010406820BBC4EBC40055
:102D800000EB041001EB0010C0F80890C4EBC40184
:102D900001EB0411A64B03EB01117A6888683946F0
:102DA00000F0C9F905462DB12946AAA0FDF72FFB71
:102DB0000120D8E70120C4EBC40101EB04119C4AB7
:102DC00002EB01114860C4EBC40000EB0410984909
:102DD00001EB00100460C4EBC40000EB041001EB35
:102DE0000010C0F860B1C4EBC40101EB0411904ABB
:102DF00002EB01110A98C1F86401C4EBC40101EBB4
:102E0000041102EB01110C98C1F86801C4EBC40075
:102E100000EB0410114601EB0010C0F86C81F86C57
:102E2000C01000FB0AF0C4EBC40101EB041102EB7B
:102E30000111C1F85C01C4EBC40101EB041102EB08
:102E40000110FFF7E4FE054665B129468CA0FDF7A9
:102E5000DEFA40F29650854202D191A0FDF7D7FAF2
:102E6000012080E7C4EBC40101EB0411704A02EBBE
:102E70000110FFF785FE054665B129468EA0FDF7D6
:102E8000C6FA40F29650854202D185A0FDF7BFFAFE
:102E9000012068E7C4EBC40000EB0410644901EBB7
:102EA0000010D0F8680198B301208DF8010008F0F7
:102EB000FF008DF8000001208DF8030008F0FF00EE
:102EC0008DF80200C4EBC40101EB0411584A02EB77
:102ED00001118868694600F0AEFCC4EBC40101EB47
:102EE0000411534A02EB0111012288684FF4A041FA
:102EF00001F05AFAC4EBC40101EB04114C4A02EB95
:102F00000111022288684FF4A04101F04DFA18E047
:102F1000FFE7C4EBC40101EB0411454A02EB0111C8
:102F200001228868910301F03FFAC4EBC40101EB70
:102F300004113F4A02EB011102228868510301F09B
:102F400033FAC4EBC401C7E0537461727420577242
:102F5000697465207472616E73666572206661695A
:102F60006C65642025640D0A0000000053746172D2
:102F7000742072656164207472616E73666572207C
:102F80006661696C65642025640D0A0052656164A0
:102F9000206368616E6E656C20636F6E6669672082
:102FA0006661696C65642025640D0A005265616480
:102FB000206368616E6E656C20736574206275664F
:102FC0006665722061646472657373206661696C02
:102FD00065642025640D0A00577269746520636872
:102FE000616E6E656C20636F6E66696720666169ED
:102FF0006C65642025640D0A000000005772697436
:1030000065206368616E6E656C20736574206275FF
:1030100066666572206164647265737320666169B7
:103020006C65642025640D0A00000000300100205A
:10303000981300204E6F20766964656F20444D41DF
:1030400020666F756E6420666F7220494420256487
:103050000D0A0000436F6E66696775726174696F6F
:103060006E20496E697469616C697A6174696F6E0A
:10307000206661696C65642025640D0A000000000B
:103080005772697465206368616E6E656C20736544
:10309000747570206661696C65642025640D0A0092
:1030A000444D41204D69736D6174636820457272AF
:1030B0006F720D0A00000000526561642063686150
:1030C0006E6E656C207365747570206661696C65E1
:1030D000642025640D0A000001EB0411094A02EB8B
:1030E00001118868FFF730FD05464DB140F296505A
:1030F000854203D1AFF25800FDF789F9012032E68D
:10310000002030E6981300200246022902D102F185
:1031100060007047012902D102F59C60F9E70020A8
:10312000F7E770B50446216801F12C0000F0AEFC11
:103130000546280F70BD2DE9F04707460C4691461D
:103140001FB10020F749086009E09821F648FDF713
:103150007BF80120F34908600020BDE8F0871CB12E
:103160000020F049086008E09921EF48FDF76CF86D
:103170000120EC4908600020EFE70020F862002100
:103180007963F8637964C7F800902089F860E06893
:103190003861A069B861E06A7862606CB862A06F5B
:1031A000C7F860093846FFF7BCFF032802DA0120A0
:1031B000786001E0606A786002213846FFF7A4FF7A
:1031C00006460020F06001213846FFF79DFF0546C6
:1031D0000021E9603869002868D00220C6F8680438
:1031E0003868306038687060786870610120B0615C
:1031F00038685030B0602089F062206B3061606BBD
:103200003062306A002805DD316801F11C0000F0F1
:103210003DFC70622069F0616069C010B062E06CD2
:10322000C0107065D7F86009C6F86404E06BF064FC
:10323000606F00BB606D28B1D6F8600440F00100FB
:10324000C6F86004A06D28B1D6F8600440F0020012
:10325000C6F86004E06D28B1D6F8600440F00800BC
:10326000C6F86004206E48B1D6F8600440F004004F
:10327000C6F8600402E00F20C6F86004304600F093
:103280001AFC304600F056FCDFF8A08201E0A8F1FD
:103290000108B8F1000F04D0304600F043FC0028CC
:1032A000F5D1B8F1000F01D1012056E7B869002827
:1032B0006BD00120C5F86804386830302860386861
:1032C0006860786868610020A8613868A030A860EC
:1032D0002089E862D7F86009C5F86404206B28618A
:1032E000A06B2862286A002805DD296801F11C000E
:1032F00000F0CCFB6862E069E861206AC010A86257
:10330000206DC0106865206CE864A06C2865606F53
:1033100000BB606E28B1D5F8600440F00100C5F82C
:103320006004A06E28B1D5F8600440F00200C5F832
:103330006004E06E28B1D5F8600440F00800C5F8DC
:103340006004206F48B1D5F8600440F00400C5F86F
:10335000600402E00F20C5F86004284600F0ABFBD3
:10336000284600F0E7FBDFF8C48101E0A8F101087E
:10337000B8F1000F04D0284600F0D4FB0028F5D1A6
:10338000B8F1000F01D10120E7E64FF01130B8602D
:103390000020E2E670B505460E4631462846FFF7A6
:1033A000B3FE044604B970BDE06818B1204600F0D1
:1033B000C1FBF8E700BFF6E770B505460E4631469B
:1033C0002846FFF7A1FE04460CB9012070BD204637
:1033D00000F0A8FBFAE770B505460E4631462846D0
:1033E000FFF792FE04460CB9002070BDE06818B1EA
:1033F000204600F0BBFBF8E70020F6E770B5064674
:103400000D46316801F1280000F040FB0446022D12
:1034100003D104F4F814200C70BD012D03D104F085
:10342000F854200EF8E74FF0FF30F5E710B50446EA
:10343000216801F12C0000F029FB10BD70B5054694
:103440000E4631462846FFF75FFE044614B94FF09A
:10345000FF3070BDE06818B1204600F0B5FBF8E71A
:103460004FF0FF30F5E72DE9F04107460D461646CF
:1034700031463846FFF748FE044694F8600400F0F1
:10348000010010B91320BDE8F081606A88B1206A9C
:10349000A8420CDD606D95FBF0F100FB115030B9D6
:1034A000216801F11C00294600F0F3FA03E0012035
:1034B000E9E70120E7E70020E5E72DE9F0470546C9
:1034C0008846164631462846FFF71EFE0746012E5F
:1034D0000AD1686A012802D0686A032801D1012054
:1034E00000E00020814609E0686A012802D0686A8D
:1034F000022801D1012000E000208146B9F1000F2F
:1035000029D0386800F0C2FA0446B8F1000F06D09E
:10351000B8F1010F0CD0B8F1020F15D10BE024F077
:10352000600411E00400002038790000A08601004A
:1035300044F0200408E0386D10B144F0400402E08B
:103540000120BDE8F08700BF00BF2146386800F0C9
:10355000A0FA0020F5E70120F3E72DE9F047074640
:1035600088469146386900284CD0B869002849D06F
:10357000B86A002846D0B9F1010F0AD14946384649
:10358000FFF7C2FD044602213846FFF7BDFD0546A0
:1035900009E049463846FFF7B7FD044601213846A1
:1035A000FFF7B2FD0546E06C10B9E86C012810D0B9
:1035B000E06C012801D1E86C58B1E06C022802D11E
:1035C000E86C032805D0E06C03281BD1E86C0228C6
:1035D00018D1206800F05AFA0646B8F1010F02D15E
:1035E00046F0800608E0B8F1000F02D126F0800610
:1035F00002E00120BDE8F0873146206800F049FA7A
:103600000020F7E70120F5E72DE9F04704460E46D4
:1036100017460F2E02DD0F20BDE8F087022F12D1D2
:1036200006F01F08216801F1280000F02FFA054676
:1036300025F01F0545EA0805216801F12800294603
:1036400000F027FA18E0012F14D14FEA062808F4F9
:10365000F858216801F1280000F018FA054625F411
:10366000F85545EA0805216801F12800294600F0CF
:1036700010FA01E00F20CFE739462046FFF744FD5E
:103680008146D9F80C0040B1484600F0A4FA8246C1
:10369000BAF1000F01D00120BEE70020BCE770B5F1
:1036A00005460E4631462846FFF72EFD044604B96E
:1036B00070BDE06810B1204600F0A0FA00BFF7E747
:1036C00070B505460E4631462846FFF71DFD0446F7
:1036D000E06810B1204600F09DFA70BD2DE9F0477A
:1036E00080460D4616461F46DDF820904946404666
:1036F000FFF70AFD0446E068A8B1A06CB84202D00A
:103700000F20BDE8F08705F01F0008B10F20F8E793
:1037100006F01F0008B10F20F3E732462946204685
:1037200000F084FAEDE70220EBE770B505460E469F
:1037300001212846FFF7E8FC0446E06820B1314645
:10374000204600F0F0FC70BD0220FCE770B5054695
:103750000E4602212846FFF7D7FC0446E06820B158
:103760003146204600F0DFFC70BD0220FCE72DE969
:10377000F04106460F46154639463046FFF7C4FC71
:10378000044614B90F20BDE8F081E06820B1294655
:10379000204600F09CFBF6E70220F4E72DE9F0411B
:1037A00006460F46154639463046FFF7ADFC04463F
:1037B00014B90F20BDE8F081E06828B12946204601
:1037C000E26A00F0B2FAF5E70220F3E770B50546C9
:1037D0000E4631462846FFF797FC04460CB90F20E9
:1037E00070BDE06818B1204600F05AFAF8E70220F0
:1037F000F6E770B505460E4631462846FFF784FCCD
:10380000044604B970BDE06810B1204600F0B5FC74
:1038100000BFF7E770B505460E4631462846FFF76C
:1038200073FC044604B970BDE06810B1204600F096
:10383000B6FC00BFF7E72DE9F04107460C461FB183
:103840000020954908600AE040F27E419348FCF769
:10385000FBFC0120904908600020BDE8F081B868B9
:10386000B0F1113F03D100208B49086009E040F21C
:103870007F418A48FCF7E8FC012087490860002066
:10388000EBE71CB100208449086009E04FF4906127
:103890008248FCF7D9FC01207F4908600020DCE762
:1038A000207808B1A07808B90F20D6E70221384661
:1038B000FFF72AFC0646F06840B16278217830466E
:1038C00000F099FC05460DB12846C6E701213846AF
:1038D000FFF71AFC0646F06840B1E278A17830465E
:1038E00000F089FC05460DB12846B6E70020B4E794
:1038F0007CB506460C461EB100206749086008E00A
:1039000040F2BF416548FCF79FFC01206249086016
:103910007CBDB068B0F1113F03D100205E49086062
:1039200008E04FF498615D48FCF78EFC01205A498D
:103930000860EDE71CB100205749086008E040F23C
:10394000C1415648FCF780FC012053490860DFE77D
:103950000020019002213046FFF7D6FB0546E868BB
:1039600020B16A4601A9284600F070FC9DF80400C9
:1039700020709DF800006070002001900121304609
:10398000FFF7C2FB0546E86820B16A4601A9284650
:1039900000F05CFC9DF80400A0709DF80000E07051
:1039A00000BFB5E72DE9F04106460D461746F06821
:1039B000A84202DA0120BDE8F08139463046FFF71F
:1039C000A3FB04460CB90120F5E7204600F0B9F846
:1039D00008B10120EFE794F8600400F0020008B994
:1039E0001320E8E705F03F01226802F1180000F01B
:1039F00050F8E562204600F05EF80020DBE72DE994
:103A0000F04107460D46164631463846FFF77CFB27
:103A100004460CB9BDE8F08194F8600400F002009F
:103A200038B1216801F1180000F030F800F03F00D3
:103A3000287000BFEEE770B505460E4631462846B1
:103A4000FFF762FB04460CB90F2070BDE06818B1A7
:103A5000204600F0A1F8F8E70220F6E72DE9F04152
:103A600006460F46154639463046FFF74DFB0446DD
:103A700014B90F20BDE8F081E06828B1294620463E
:103A800000F093F80020F5E70220F3E7014608680C
:103A9000704702461160704704000020387900002A
:103AA0004250704770B505460C4622460021284614
:103AB000FFF7F6FF70BD2DE9F047044604F16007FB
:103AC000E66A0020E06020636063A063E063701E2C
:103AD00004F1600101EB40197101384601F0D5FE97
:103AE000002512E004F1600000EB451A701EA842A8
:103AF00001D1B84604E004F16000691C00EB4118F4
:103B000041465046FFF7CEFF6D1CB542EADBA66486
:103B100067632763C4F83C90C4F838900120E060E4
:103B2000BDE8F08710B50446206800F0FFFB00F008
:103B3000040010BD10B504460421206800F0F9FB14
:103B400010BD70B504462168081D00F0EFFB00F0C1
:103B500001050DB1002070BD206800F0E7FB00F00A
:103B600001050DB90020F6E70120F4E770B5044621
:103B70002168081D00F0DAFB00F002050DB10020FD
:103B800070BD2168081D00F0D1FB00F001050DB1EA
:103B90000020F5E70120F3E710B504462168081D71
:103BA00000F0C4FB00F47F6010BD70B504460D4604
:103BB0002168081D00F0BAFB40EA05062168081DCF
:103BC000314600F0B6FB70BD10B504462168081DF3
:103BD00000F0ACFB10BD70B504462046FFF7B1FF06
:103BE00008B9012070BD206800F0A0FB20F002059C
:103BF0002946206800F09DFB0020F3E770B50446DD
:103C0000206800F093FB40F002052946206800F090
:103C100090FB70BD70B50446206800F087FB40F053
:103C200010052946206800F084FB70BD2DE9F05F87
:103C300004460D461746A66CA946BA46606930B1DF
:103C40002046FFF793FF10B11520BDE8F09F7101EA
:103C5000284601F0F8FD7101384601F0F4FD4FF0FF
:103C600000080FE0D346701E404501D1A94601E08F
:103C700009F1200949465846FFF714FF0AF1200AC6
:103C800008F10108B045EDDB25636763701E05EBA5
:103C90004010A063701E07EB4010E0630020D4E7E3
:103CA00070B50446E06808B9012070BD606928B1AC
:103CB0002046FFF75BFF08B11520F6E72046FFF727
:103CC00040FFA0B9606928B1226802F10800216BA9
:103CD00000F02FFB206800F029FB0546206800F06B
:103CE00025FB40F001052946206800F022FB204614
:103CF000FFF727FF70B1606930B1226802F1100050
:103D0000A16B00F016FB03E0616CA06800F011FBF2
:103D10000020CAE70920C8E770B505460C462246D0
:103D200008212846FFF7BCFE70BD2DE9F84F054677
:103D30000F469046002600200090D5F86404202805
:103D400002DD4FF0070901E04FF00F09E86810B9F4
:103D50000120BDE8F88FA86AA0F1010A002409E05B
:103D6000E86930B957F8240000EA0A0008B10F20CA
:103D7000EFE7641C4445F3DB002450E0686B00EB84
:103D8000441B686928B157F824105846FFF7C4FF50
:103D900043E04C450ADD009840B9296801F1140060
:103DA000012100F0C6FA012000900026D5F8640435
:103DB00020281DDD0C2202EB860202EB8402AB6898
:103DC000D01857F8241000F0B4FA102202EB860243
:103DD00002EB8402AB68D01857F824200023120CA1
:103DE00042EA0342120C42EA034100F0A2FA08E060
:103DF0000C2303EB8603AA68D01857F8241000F0B0
:103E000098FAC84509DDA8F10100A04205D129684A
:103E100001F11400002100F08CFA641C761C44456A
:103E2000ACDB002095E702465058704770B5064657
:103E30000C46002C01DB0F2C01DD0F2070BD18217A
:103E40003046FFF7F0FF20F0706545EA0462182164
:103E50003046FFF725FE0020F0E770B506460C4619
:103E6000002C02DDB4F5803F01DB0F2070BD18216E
:103E70003046FFF7D8FF050C2D0445EA040218214F
:103E80003046FFF70DFE0020F0E770B505460C4602
:103E9000002C02DDB4F5803F01DB0F2070BD22460F
:103EA00014212846FFF7FCFD0020F7E770B5054612
:103EB0000C46002C02DDB4F5005F01DB0F2070BD65
:103EC000224610212846FFF7EBFD0020F7E72DE9F9
:103ED000FC5F04460D46E06810B90120BDE8FC9F78
:103EE000606928B12046FFF741FE08B11520F5E7CB
:103EF00028686064D4F8680401280FD16868A16A52
:103F0000884201DAA66A18E06868A16A90FBF1F2BB
:103F100001FB12068EB1A06A861B0EE06868A16ADA
:103F2000884201DAA66A08E06868616D90FBF1F2E8
:103F300001FB12060EB1606D861BA868A16A88425B
:103F400002DAD4F828800BE0A868A16A90FBF1F2AD
:103F500001FB1208B8F1000F02D0A06AA0EB08081C
:103F6000E06948B916B1686830446860B8F1000F7C
:103F700002D0A8684044A86068682064206800F007
:103F8000D5F90746206800F0D1F940F61A7120EA09
:103F90000107286910B147F0020740E02046FFF70B
:103FA000D0FD18B9606908B10F2097E7D5F8A000D7
:103FB0000F2801DD0F2091E7A069B0B195F8A000AE
:103FC00000F01F000090616801F1280000F0AEF9D8
:103FD00083462BF01F0B00984BEA000B616801F140
:103FE0002800594600F0A5F918E0D5F8A000000215
:103FF0000090009800F4F8500090616801F12800EA
:1040000000F094F983462BF4F85B00984BEA000B20
:10401000616801F12800594600F08BF900BF68691A
:1040200018B1E06C08B147F00807D5F8A40030B12A
:10403000E06C10B1E06C022801D147F40047E86958
:1040400008B147F010074FF47061A86901EA002039
:1040500007433946206800F06CF9606978B3A06CBA
:1040600001904FF000092DE0606B00EB491B5846B2
:104070002968FFF71BFF8246BAF1000F01D05046B6
:104080002CE758466968FFF700FF8246BAF1000F37
:1040900001D0504622E75846A968FFF7DEFE824667
:1040A000BAF1000F01D0504618E75846E968FFF70B
:1040B000BDFE8246BAF1000F02D050460EE705E081
:1040C00009F1010901988145CEDB2AE02868B0F5A5
:1040D000005F16DA2868002813DD6868B0F5803FB5
:1040E0000FDA686800280CDDA868B0F5803F08DAB0
:1040F000A868002805DDE868002802DBE8680F28CA
:1041000001DD0F20EAE66968A268101D00F011F9D0
:104110002B7BAA6842EA0361A26802F1080000F062
:1041200008F90020DAE670B505460E46E86808B9D9
:10413000012070BD686928B12846FFF717FD08B156
:104140001520F6E731462846FFF7C1FE04460CB1BC
:104150002046EEE706F120012846AA6CFFF7E5FDB0
:1041600004460CB12046E4E72846FFF799FD0446D3
:104170000CB12046DDE70020DBE770B504462046A1
:10418000FFF7DFFC00B970BD206800F0CFF820F029
:1041900001052946206800F0CCF800BFF3E770B5B0
:1041A000044665A02168FCF732F9206800F0BEF8EB
:1041B0000546294668A0FCF72AF92168081D00F089
:1041C000B5F80546294669A0FCF721F9216801F1F7
:1041D000080000F0ABF80546294669A0FCF717F97E
:1041E000216801F1100000F0A1F80546294669A0F8
:1041F000FCF70DF970BD2DE9F04104460E46174657
:10420000E06810B90120BDE8F0810EB90F20FAE78F
:10421000206800F08BF885B294F8600400F0040088
:1042200010B145EA064501E01320ECE794F860047C
:1042300000F0080010B145EA076501E01320E2E74D
:104240002946206800F075F80020DCE72DE9F041F0
:1042500004460E461746E06818B900203070BDE8E5
:10426000F081206800F062F8054694F8600400F0E0
:10427000040008B1280C307094F8600400F00800C5
:1042800008B1280E387000BFE9E770B504460D4646
:1042900005F4E04000B970BD206800F047F820F454
:1042A000E04605F4E04006433146206800F041F85E
:1042B00000BFF0E72DE9F04104460D4605F4E0406B
:1042C00008B9BDE8F081206800F030F8064606F431
:1042D000E04005F4E04120EA010726F4E04646EA22
:1042E0000701206800F025F800BFEAE710B5044692
:1042F0002168081D00F01AF800F4E04010BD70B508
:1043000005460C4604F4E04000B970BD04F4E041F9
:104310002A68101D00F00DF800BFF6E710B504463E
:10432000206800F003F800F4E04010BD0146086882
:10433000704702461160704744756D702072656762
:10434000697374657220666F72206368616E6E6552
:104350006C2025703A0D0A0009436F6E74726F6C01
:10436000205265673A2025780D0A000009537461D0
:10437000747573205265673A2025780D0A00000095
:10438000094344455343205265673A2025780D0A76
:1043900000000000095444455343205265673A2009
:1043A00025780D0A000000002DE9F04106460F4671
:1043B000144621463046FEF7A7FE0546E86818B1C8
:1043C00039462846FFF761FFBDE8F0812DE9F0414D
:1043D00006460F46144621463046FEF795FE054632
:1043E000E86818B139462846FFF764FFBDE8F08158
:1043F00070B505460E4631462846FEF785FE044652
:104400000CB9002070BDE06818B12046FFF76EFFC0
:10441000F8E70020F6E72DE9F04106460F4614467E
:1044200021463046FEF770FE0546E86818B1394669
:104430002846FFF764FFBDE8F0812DE9F04107460B
:104440000E461546012D02D00F20BDE8F081294609
:104450003846FEF759FE04460CB90F20F5E7E06830
:1044600048B1226802F13C0006F00F0102461160DB
:1044700000BF0020E9E70220E7E72DE9F04106460A
:10448000B04608F12C05286808B9BDE8F081022182
:104490004046FEF739FE0746F86800B9F5E73846AA
:1044A000FFF724FF04463846FFF738FF0440214653
:1044B0003846FFF724FF14B104F4804028B104F417
:1044C0008041D5E902209047DFE704F4405018B15D
:1044D0002146D5E90020904700BFD6E72DE9F041FD
:1044E0000646374601213846FEF70EFE8046D8F8CC
:1044F0000C0008B9BDE8F0814046FFF7F7FE05461D
:104500004046FFF70BFF054029464046FFF7F7FE00
:1045100007F13C04206800B9ECE715B105F48040D0
:1045200028B105F48041D4E902209047E2E705F480
:10453000405018B12946D4E90020904700BFD9E780
:104540002DE9F04705460E4617469846DDF82090BF
:104550001DB100201F4908600AE04FF4BD711E48DC
:10456000FBF772FE01201B4908600020BDE8F087C0
:10457000A868B0F1113F03D100201649086009E096
:1045800040F27B111448FBF75FFE012011490860DF
:104590000020EBE7012E03D0022E01D00F20E5E72B
:1045A000B9F1020F02D105F12C0401E005F13C0440
:1045B000012E02D0022E08D103E02760C4F8048047
:1045C00005E0A760C4F80C8001E00F20CEE700BF33
:1045D0000020CBE7040000208C79000010B50246D3
:1045E000002000210CE0C1EB4113074C34F82330CC
:1045F000934204D1C1EB411304EB830002E0491C58
:104600000029F0D000BF10BD3401002002460B4647
:10461000002107E052F82100192801D1084670470F
:10462000481CC1B29942F5DBFF20F8E710B50146FE
:10463000FE4A0A4044F6CB04131BA2423BD013DCD3
:1046400044F2C644A2EB0403A2421BD007DCA2F54D
:104650008842A2F1490232B3412A2ED127E0032B2E
:104660001FD0042B29D10FE0A3F56C52C33AB2B18D
:104670003F2A1AD0A2F2014212B1402A1DD118E0FD
:1046800000201CE002201AE0C1F340120AB107200A
:1046900015E0C1F300120AB1032010E00FE004207E
:1046A0000DE005200BE0052009E0062007E00720CB
:1046B00005E0082003E0092001E00A2000BF00BF58
:1046C00010BD014600BF486800BF0A68801A7047E5
:1046D0002DE9F0438BB006460F460024282101A89F
:1046E00001F0D3F82CE03846FFF7EBFF10280FD984
:1046F00000BF30688146FFF799FF04460A2C0AD0B4
:1047000001A850F82400401C01A941F8240002E04F
:104710000298401C02900A2101A8FFF777FF054686
:10472000FF2D03D028460BB0BDE8F0834FF47A7814
:1047300000BFB8F10000A8F101011FFA81F8F8D11B
:10474000D1E710B5BA49BB48FFF7C2FFBA490880A4
:10475000B7490831B7480830FFF7BAFFB7490880B2
:10476000B3491031B3481030FFF7B2FFB4490880A5
:10477000AF491831AF481830FFF7AAFFB149088098
:10478000AB492031AB482030FFF7A2FFAE4908808B
:10479000A948008842F210714843A849098801EBF2
:1047A0004102C2EBC11100EBC100A549098801EB30
:1047B000C10202EB011100EB8100A249098801EB63
:1047C000810100EB4101A048008808449F4908602E
:1047D00010BD002105E0002200E0521C142AFCD389
:1047E000491C8142F7D3704708B5994800780028E2
:1047F00061D1984B98A223210A2000F0D5FDFFF744
:10480000A0FF012092490870904800689B49086009
:10481000894801889AA0FBF7FAFD8848018898A08A
:10482000FBF7F5FD8648018895A0FBF7F0FD85486C
:10483000018893A0FBF7EBFD8348018891A0FBF76B
:10484000E6FD844800907C4800783030C2B20023F6
:1048500032217C2000F03CFD7E48009077480078B3
:104860003030C2B200233221882000F031FD794877
:104870000090734800783030C2B200233221942077
:1048800000F026FD734800906E4800783030C2B2C8
:1048900000233221A02000F01BFD6E4800906A48E2
:1048A00000783030C2B200233221AC2000F010FD7D
:1048B000FCF70BFA9CE0FFF744FF744908606F496E
:1048C00009688842F6D02820FFF783FFFFF739FFF9
:1048D0005E480068694909688842EBD05B48006817
:1048E0006A4909688842E5D169A0FBF790FD5748FD
:1048F0000068624908605048018861A0FBF787FDA5
:104900004E4801885EA0FBF782FD4D4801885CA0FF
:10491000FBF77DFD4B48018859A0FBF778FD4A481D
:10492000018858A0FBF773FD5D480078401C5C4986
:10493000087048480090404800783030C2B20846BD
:104940000078C0EB001000F1320100237C2000F061
:10495000BFFC40480090394800783030C2B250481F
:104960000078C0EB001000F132010023882000F035
:10497000AFFC38480090324800783030C2B2484826
:104980000078C0EB001000F132010023942000F009
:104990009FFC304800902B4800783030C2B240482D
:1049A0000078C0EB001000F132010023A02000F0DD
:1049B0008FFC28480090244800783030C2B2384834
:1049C0000078C0EB001000F132010023AC2000F0B1
:1049D0007FFCFCF77AF932480078132808D11D4B88
:1049E00030A24FF4AF710A2000F0DEFC00BFFEE7FA
:1049F00008BDF0B502460C460025002363E0002107
:104A000012E052F821704E1C52F82660B74209D9C4
:104A100052F821004E1C52F8266042F821604E1CCC
:104A200042F826004E1CF1B2E61A47E0CFFF030021
:104A30000000A4440000A144B8010020BA010020F5
:104A4000BC010020BE010020C0010020C4010020E4
:104A5000B00100202EF1EE0056656869636C652098
:104A60004C6963656E736520506C61746520526596
:104A7000636F676E6974696F6E000000B401002097
:104A80002564000025640D0A00000000C801002014
:104A90004C6F6164696E672E2E2E2E2E2E0D0A002D
:104AA000CC0100205265636F676E6974696F6E2078
:104AB00046696E697368656421000000761E8E4247
:104AC0009FDC5E1CF3B2661E9E4298DC01230EE062
:104AD00052F82360864202D16E1CF5B205E0012D2A
:104AE00000DDF0BD52F8230001255E1CF3B2A342A5
:104AF000EEDB00BFF5E710B50146444BCA1A9942F8
:104B00006DD020DC424BA1EB030299424DD010DC6A
:104B1000404BA1EB0302994259D005DC3E4A0A44BE
:104B2000AAB3312A5DD13AE0202A4ED0502A58D17A
:104B300033E0032A41D0072A33D0A2F245323AB3F8
:104B4000C02A4ED137E0354C131BA24243D013DCB0
:104B5000334CA2EB0403A24235D007DC802A3CD0C0
:104B6000A2F57032483A002A3BD12AE0A3F246333C
:104B7000FBB1802B35D11AE0802B2AD0A3F2C233AF
:104B80004BB1402B05D0802B2BD100202BE00AE02D
:104B900015E0002027E0002025E0022023E002208D
:104BA00021E003201FE003201DE003201BE0042080
:104BB00019E0042017E0052015E0052013E005208A
:104BC00011E006200FE006200DE007200BE0072093
:104BD00009E0082007E0082005E0092003E009209B
:104BE00001E00A2000BF00BF10BD30B502460B46F1
:104BF00000200024002106E0555CA54201DB0846A8
:104C0000545C4D1CE9B29942F6DB30BD6D84040062
:104C1000E24404008A440400D7BBFBFF10000400F8
:104C200088C003002DE9F05F06460F46904699467E
:104C3000DDE90AAB002400253443A40144EA0A0458
:104C4000A40144EA0904A4010C980443A40144EA21
:104C50000B042146084800F00BF845EA0805AD01B1
:104C60003D4329460448001D00F002F8BDE8F09FCE
:104C700002461160704700000000A24470B504466F
:104C80000E4646B10121FB48FCF74CFB0121A14037
:104C90000843C5B208E00121F648FCF743FBC0B267
:104CA0000121A14020EA01052A460121F148FCF733
:104CB00078FB70BD002107E0002201E0531C9AB28E
:104CC0008242FBDB4B1C99B2C829F5DB704710B55B
:104CD0000321E848FCF765FD04460CB1012010BD36
:104CE0006FF00F020121E348FCF79EFA0022012138
:104CF000E048FCF756FB0421DF48FDF75DFB044666
:104D00000CB10120EBE71121DB48FDF7ADFA0446B9
:104D10000CB10120E3E70221D748FDF7C4F80446AF
:104D20000CB10120DBE7D448FCF779FED24A926946
:104D300002F11C0000210246116000BF0020CEE7F6
:104D40002DE9F04104460D4616461F462146CA4845
:104D5000FDF7A9F88046B8F1000F02D0C7A0FBF715
:104D600056FB3B4632462946C348FCF7E8FEBDE801
:104D7000F08101B50123002269460220FFF7E0FF20
:104D800008BD10B5044601210220FFF777FF204639
:104D9000FFF7EFFF10BD10B5044601210220FFF719
:104DA0006DFFC4F30740FFF7E4FFC4F30720FFF7EC
:104DB000E0FFE0B2FFF7DDFF10BD10B504460021B3
:104DC0000220FFF75BFF2046FFF7D3FF10BD2DE960
:104DD000F04104460D4616461F462A20FFF7EDFF18
:104DE0002012FFF7CEFFE0B2FFF7CBFF3012FFF744
:104DF000C8FFF0B2FFF7C5FF2B20FFF7DEFF281238
:104E0000FFF7BFFFE8B2FFF7BCFF3812FFF7B9FFAB
:104E1000F8B2FFF7B6FF2C20FFF7CFFFBDE8F08117
:104E200010B5FFF754FF00210846FFF727FFC82001
:104E3000FFF740FF01210020FFF720FFC820FFF708
:104E400039FF01210846FFF719FFC820FFF732FF9D
:104E50001120FFF7B2FFF220FFF7AFFF1820FFF796
:104E600090FFA320FFF78DFF1220FFF78AFF02209B
:104E7000FFF787FFB220FFF784FF1220FFF781FFC3
:104E8000FF20FFF77EFF1020FFF77BFF0020FFF7DA
:104E900078FFF820FFF791FF2120FFF772FF042031
:104EA000FFF76FFF1320FFF788FF3620FFF785FF1E
:104EB0000820FFF766FFB420FFF77FFF0220FFF70F
:104EC00060FFB620FFF779FF0220FFF75AFF22208C
:104ED000FFF757FFC120FFF770FF4120FFF751FF99
:104EE000C520FFF76AFF0020FFF74BFF1820FFF7F0
:104EF00048FF3A20FFF761FF6620FFF742FF3220AC
:104F0000FFF7D8FEE020FFF758FF0F20FFF739FF2B
:104F10001F20FFF736FF1C20FFF733FF0C20FFF7A1
:104F200030FF0F20FFF72DFF0820FFF72AFF482052
:104F3000FFF727FF9820FFF724FF3720FFF721FF17
:104F40000A20FFF71EFF1320FFF71BFF0420FFF7C7
:104F500018FF1120FFF715FF0D20FFF712FF0020AB
:104F6000FFF70FFFE120FFF728FF0F20FFF709FFF2
:104F70003220FFF706FF2E20FFF703FF0B20FFF77D
:104F800000FF0D20FFF7FDFE0520FFF7FAFE47208A
:104F9000FFF7F7FE7520FFF7F4FE3720FFF7F1FE6D
:104FA0000620FFF7EEFE1020FFF7EBFE0320FFF7D1
:104FB000E8FE2420FFF7E5FE2020FFF7E2FE0020B8
:104FC000FFF7DFFE1120FFF7F8FE7820FFF772FEF3
:104FD0002920FFF7F2FE2C20FFF7EFFE10BD70B581
:104FE000064640F2DF1340F23F1200210846FFF769
:104FF000EEFE00240BE0002504E03046FFF7CBFE78
:10500000681C85B2B5F5F07FF7DB601C84B2B4F59F
:10501000A07FF0DB70BD2DE9F05F81468A469346A4
:105020001C46102C00D11B4D202C00D11A4D0AEB30
:105030000400401E83B209EB0400401E82B25146B8
:105040004846FFF7C4FE04FB04F0C11700EB5171A2
:10505000C1F3C7080BFB085500272AE0002623E010
:1050600028780121B1400840C0B10A98FFF793FEAB
:1050700018E00000081500201815002053504920A2
:105080005472616E73666572204572726F72210D83
:105090000A00000050040020D0010020FC480068F5
:1050A000FFF779FE701CC6B2082ED9DB6D1C781C88
:1050B000C7B24745D2DBBDE8F09F70B504460D4648
:1050C00016462B46224629462046FFF780FE3046EC
:1050D000FFF761FE70BD2DE9F04704460D46164608
:1050E0001F46DDF820A03B46324629462046FFF702
:1050F0006EFEA8460EE0A14606E05046FFF74BFEC6
:1051000009F101001FFA80F9B145F6DD08F101004F
:105110001FFA80F8B845EEDDBDE8F087F8B5044623
:105120000D4616466F1CBBB2671CBAB26F1EB9B2F1
:10513000671EB8B20096FFF7CEFFF8BD2DE9FF4F0E
:1051400085B081468A460020039083460798A0EBED
:1051500009040898A0EB0A06CDF80890CDF804A041
:10516000002C01DD012705E00CB9002702E04FF01B
:10517000FF376442002E02DD4FF0010806E016B949
:105180004FF0000802E04FF0FF386642B44201DD04
:10519000254600E03546002004901EE0019A91B2B9
:1051A000029A90B2129AFFF788FF03982044039066
:1051B000B3440398A84205DD0398401B039002986E
:1051C00038440290AB4504DDABEB050B019840443D
:1051D00001900498401C80B20490691C0498884295
:1051E000DCDB09B0BDE8F08F2DE9F84305460E463B
:1051F00017469846089C33463A463146284600945E
:10520000FFF79CFF43462A46314628460094FFF7A5
:1052100095FF43463A46414628460094FFF78EFFE5
:1052200043463A46314638460094FFF787FFBDE8CB
:10523000F8832DE9F04706460F469046994600252B
:10524000444641E07A1B91B2321B90B24A46FFF7C6
:1052500034FF7A1B91B2321990B24A46FFF72DFF04
:105260003A1991B2721B90B24A46FFF726FF3A1BD9
:1052700091B2721B90B24A46FFF71FFF7A1991B2A2
:10528000321990B24A46FFF718FF3A1B91B27219D1
:1052900090B24A46FFF711FF3A1991B2721990B2D3
:1052A0004A46FFF70AFF7A1991B2321B90B24A467A
:1052B000FFF703FF6D1C05FB05F004FB040108FB71
:1052C00008F0814200DD641EA542BBDDBDE8F08729
:1052D0002DE9F84F05460F4616469A46DDF828B0E8
:1052E0000095B5F5987F02DCB7F5E87F01DDBDE8F4
:1052F000F88FA6F12000C6B207F10F0083B2E81DB7
:1053000082B239462846FFF762FDBAF1000F27D175
:10531000002422E004EB06105E4911F800904FF0E3
:10532000000812E009F0010018B15846FFF733FDFC
:1053300003E057480068FFF72EFD4FEA6909681C33
:1053400085B208F1010000F0FF08B8F1080FE9DBB1
:10535000009D781C87B2601CC4B2102CDADB21E0FF
:1053600000241DE004EB06104A4911F800904FF0AC
:10537000000810E009F0010038B13A1991B205EBCC
:10538000080290B25A46FFF798FE4FEA690908F101
:10539000010000F0FF08B8F1080FEBDB601CC4B29D
:1053A000102CDFDB00BFA2E7F8B505460E46144619
:1053B0001F461BE0B5F5987F03DD002506F11000C0
:1053C00086B2B6F5E87F06DD0020054606464FF4B6
:1053D0007C00FFF704FE009722780123314628461F
:1053E000FFF776FF05F1080085B2641C20780028DD
:1053F000E0D1F8BD10B50246012000E050430B1E7D
:10540000A1F10104E1B2F9D110BD2DE9F84F064632
:105410008A4690461D46DDF828904FF0000B002488
:1054200031E0281B401EC1B20A20FFF7E3FFB8FBA2
:10543000F0F00A21B0FBF1F201FB1207BBF1000F03
:1054400011D1681EA0420EDD5FB9082101FB046185
:1054500088B2002320225146CDF80090FFF738FF94
:105460000FE04FF0010B07F13001CAB2082101FB38
:10547000046188B200235146CDF80090FFF728FF61
:1054800000BF601CC4B2AC42CBDBBDE8F88F0000AB
:10549000300500201C5D00002DE9F84F06468A46C5
:1054A00017461C46DDF828803249384600F05AFB82
:1054B000009000F037FB1FFA80FB00252EE0601BF8
:1054C000401EC1B20A20FFF795FFBBFBF0F00A2196
:1054D000B0FBF1F201FB1209A01EA8420FD1A11EE0
:1054E000082202FB016188B200232E225146CDF82A
:1054F0000080FFF7EDFE681CC5B2601CC4B209F164
:105500003001CAB2082101FB056188B2002351466F
:10551000CDF80080FFF7DCFE681CC5B2A542CEDBEB
:10552000BDE8F88F2DE9F04105460E46174698462E
:1055300043463A4631462846FFF749FC002414E02A
:1055400004EB4401891C0C4A505CFFF71AFC04EB85
:105550004401491C084A505CFFF713FC04EB44016A
:10556000054A505CFFF70DFC641CB4F5C86FE7DB1F
:10557000BDE8F0810000C8420C63000010B500F0E7
:10558000AFF9001D10BD00BF7105000010B5044645
:10559000FFF7F4FF0068005DC00602D504F12000AB
:1055A00010BD204610BD00000FB41CB5074B06AA65
:1055B0007B4469460090059800F0F5F900206946A3
:1055C00000F004FA1CBC5DF814FB00001904000094
:1055D0002DE9F0410E460446002020622046E16895
:1055E000884730B3252805D0D4E901219047206AA7
:1055F000401CF2E7E168204600278847050018D0E4
:10560000A5F14100192802D820354FF40067324631
:10561000294620462760FAF7ADFD40B1012804D0A5
:10562000F61D26F007060836D8E7361DD6E72846C9
:10563000DAE7206ABDE8F08170B50C460546012A1C
:1056400005D02878800600D5EA69002302E001230E
:1056500005E05B1C934202D2E05C0028F9D1A86906
:10566000E618C01AA861286A184428622846AFF3D1
:10567000008004E0D5E9012114F8010B9047B44201
:10568000F8D32846AFF3008070BD00002DE9F0414B
:105690000646002410687529314616A510D0AFF3D0
:1056A0000080002802DA404213A507E031688A072B
:1056B00001D512A502E0490704D511A5012401E096
:1056C000AFF3008000210A2206F1240709E0B0FBB5
:1056D000F2FCB0FBF2F302FB1C00303078541846A9
:1056E000491C0028F3D123462A463046BDE8F04144
:1056F00000F0FAB8000000002D0000002B000000B0
:105700002000000070B504460D4621461068AFF336
:1057100000802188090502D50F4A7A4402E00E4A2A
:105720007A440E32002104F1240305E000F00F0654
:105730000009965D5E54491C0028F7D120780023AB
:10574000000704D5702D02D009B102231132204682
:10575000BDE8704000F0C8B8AE1E000040EA01038A
:10576000024630B59B0710D14FF0013400E008C26B
:1057700008C91D1B9D4315EAC41FF8D013F0FF0193
:1057800002F8011B0DD01B0AF8E711F8013B002BB2
:1057900002F8013B05D011F8013B002B02F8013B58
:1057A000F3D130BD10B5431C02E010F8011B71B1FC
:1057B0008107FAD14FF0013202C88C1A8C4314EAE7
:1057C000C211F9D0C01A0A0603D0C01E10BDC01AFB
:1057D00010BD0A0401D0801E10BD0902FCD0401E7D
:1057E00010BD10B5203AC0F00B80B1E81850203A37
:1057F000A0E81850B1E81850A0E81850BFF4F5AF71
:105800005FEA027C24BFB1E81850A0E8185044BFFA
:1058100018C918C0BDE810405FEA827C24BF51F867
:10582000043B40F8043B08BF7047D20728BF31F85B
:10583000023B48BF11F8012B28BF20F8023B48BFAC
:1058400000F8012B70474FF000020429C0F01280CD
:1058500010F0030C00F01B80CCF1040CBCF1020F23
:1058600018BF00F8012BA8BF20F8022BA1EB0C01F8
:1058700000F00DB85FEAC17C24BF00F8012B00F8EE
:10588000012B48BF00F8012B70474FF0000200B514
:10589000134694469646203922BFA0E80C50A0E853
:1058A0000C50B1F12001BFF4F7AF090728BFA0E801
:1058B0000C5048BF0CC05DF804EB890028BF40F8CD
:1058C000042B08BF704748BF20F8022B11F0804F0F
:1058D00018BF00F8012B70477047704770470000F1
:1058E00000487047941500202DE9F0470D46994671
:1058F0009246044600F124080168880604D5E06950
:1059000021F01001216000E00120A84201DD471BC9
:1059100000E00027A1697A1902EB0900081AA061CA
:105920002078C00602D42046AFF30080002608E0AD
:10593000D4E901211AF806009047206A401C761C21
:1059400020624E45F4DB2078C0060AD52046AFF32E
:10595000008006E0D4E9012130209047206A401CF5
:105960002062381EA7F10107F4DC07E0D4E9012129
:1059700018F805009047206A401C2062281EA5F1F7
:105980000105F3DC2046AFF300802078000602D545
:105990000220BDE8F0870120FBE7000001694A1CF6
:1059A00002610878704700B58FB0CDE90131002160
:1059B000059105497944CDE9031011466846FFF782
:1059C00007FE0FB000BD0000E5FFFFFF0A6802F808
:1059D000010B0A60704710B5436913B1AFF3008043
:1059E00001E0FFF729FE012010BD127800F124012B
:1059F0000A7000224A700122EDE711684FF0FF3271
:105A0000E9E7000000487047741500204FF0013CA2
:105A100050F8042B51F8043B9A4221D1A2EB0C031D
:105A2000934313EACC1317D150F8042B51F8043BDD
:105A30009A4215D1A2EB0C03934313EACC130BD17A
:105A400050F8042B51F8043B9A4209D1A2EB0C0305
:105A5000934313EACC13DBD04FF00000704700BF34
:105A6000D01A01BAB1FA81F101F0180122FA01F05D
:105A7000CB40C1F12001DBB2C0B2C01A2CFA01F355
:105A8000D11A914311EAC311E6D170477546FFF769
:105A9000B9FFAE4605006946534620F0070085462B
:105AA00018B020B5FAF7A8FBBDE820404FF000067B
:105AB0004FF000074FF000084FF0000B21F00701F6
:105AC000AC46ACE8C009ACE8C009ACE8C009ACE839
:105AD000C0098D46704710B50446AFF300802046DC
